{
  "contractName": "Mortal",
  "abi": [
    {
      "constant": false,
      "inputs": [],
      "name": "kill",
      "outputs": [],
      "payable": false,
      "stateMutability": "nonpayable",
      "type": "function"
    }
  ],
  "bytecode": "0x6060604052336000806101000a81548173ffffffffffffffffffffffffffffffffffffffff021916908373ffffffffffffffffffffffffffffffffffffffff160217905550610112806100536000396000f300606060405260043610603f576000357c0100000000000000000000000000000000000000000000000000000000900463ffffffff16806341c0e1b5146044575b600080fd5b3415604e57600080fd5b60546056565b005b6000809054906101000a900473ffffffffffffffffffffffffffffffffffffffff1673ffffffffffffffffffffffffffffffffffffffff163373ffffffffffffffffffffffffffffffffffffffff16141560e4576000809054906101000a900473ffffffffffffffffffffffffffffffffffffffff1673ffffffffffffffffffffffffffffffffffffffff16ff5b5600a165627a7a72305820422b8485a36f812863c334c52c3c176d43bcdfafde604435610da1be7210ab8a0029",
  "source": "pragma solidity ^0.4.0;\r\n\r\nimport \"./Owned.sol\";\r\n\r\ncontract Mortal is Owned {\r\n\r\n  function kill() only_owner public{\r\n    selfdestruct(owner);\r\n  }\r\n}\r\n",
  "sourcePath": "C:\\Users\\Omar\\ether\\simple-frontend\\contracts\\Mortal.sol",
  "compiler": {
    "name": "solc",
    "version": "0.4.19+commit.c4cbbb05.Emscripten.clang"
  },
  "schemaVersion": "1.0.1",
  "updatedAt": "2018-02-24T00:09:47.425Z"
}