{
  "contractName": "MyWallet",
  "abi": [
    {
      "constant": false,
      "inputs": [],
      "name": "kill",
      "outputs": [],
      "payable": false,
      "stateMutability": "nonpayable",
      "type": "function"
    },
    {
      "payable": true,
      "stateMutability": "payable",
      "type": "fallback"
    },
    {
      "anonymous": false,
      "inputs": [
        {
          "indexed": true,
          "name": "_from",
          "type": "address"
        },
        {
          "indexed": false,
          "name": "_amount",
          "type": "uint256"
        }
      ],
      "name": "receivedFunds",
      "type": "event"
    },
    {
      "anonymous": false,
      "inputs": [
        {
          "indexed": true,
          "name": "_from",
          "type": "address"
        },
        {
          "indexed": true,
          "name": "_to",
          "type": "address"
        },
        {
          "indexed": false,
          "name": "_reason",
          "type": "string"
        },
        {
          "indexed": false,
          "name": "_counter",
          "type": "uint256"
        }
      ],
      "name": "proposalReceived",
      "type": "event"
    },
    {
      "constant": false,
      "inputs": [
        {
          "name": "_to",
          "type": "address"
        },
        {
          "name": "_value",
          "type": "uint256"
        },
        {
          "name": "_reason",
          "type": "string"
        }
      ],
      "name": "spendMoneyOn",
      "outputs": [
        {
          "name": "",
          "type": "uint256"
        }
      ],
      "payable": false,
      "stateMutability": "nonpayable",
      "type": "function"
    },
    {
      "constant": false,
      "inputs": [
        {
          "name": "proposal_id",
          "type": "uint256"
        }
      ],
      "name": "confirmProposal",
      "outputs": [
        {
          "name": "",
          "type": "bool"
        }
      ],
      "payable": false,
      "stateMutability": "nonpayable",
      "type": "function"
    }
  ],
  "bytecode": "0x6060604052336000806101000a81548173ffffffffffffffffffffffffffffffffffffffff021916908373ffffffffffffffffffffffffffffffffffffffff160217905550610748806100536000396000f300606060405260043610610057576000357c0100000000000000000000000000000000000000000000000000000000900463ffffffff168063192997e7146100b157806341c0e1b51461014a578063f4a4f4d21461015f575b60003411156100af573373ffffffffffffffffffffffffffffffffffffffff167f3f638da77ee3d49db2211092b965c9c7c2fcb68fea5e8f85986200f8776f6a1d346040518082815260200191505060405180910390a25b005b34156100bc57600080fd5b610134600480803573ffffffffffffffffffffffffffffffffffffffff1690602001909190803590602001909190803590602001908201803590602001908080601f0160208091040260200160405190810160405280939291908181526020018383808284378201915050505050509190505061019a565b6040518082815260200191505060405180910390f35b341561015557600080fd5b61015d610471565b005b341561016a57600080fd5b6101806004808035906020019091905050610502565b604051808215151515815260200191505060405180910390f35b60003373ffffffffffffffffffffffffffffffffffffffff166000809054906101000a900473ffffffffffffffffffffffffffffffffffffffff1673ffffffffffffffffffffffffffffffffffffffff16141561023a578373ffffffffffffffffffffffffffffffffffffffff166108fc849081150290604051600060405180830381858888f19350505050151561023157600080fd5b6000905061046a565b60016000815480929190600101919050555060a0604051908101604052803373ffffffffffffffffffffffffffffffffffffffff1681526020018573ffffffffffffffffffffffffffffffffffffffff1681526020018481526020018381526020016000151581525060026000600154815260200190815260200160002060008201518160000160006101000a81548173ffffffffffffffffffffffffffffffffffffffff021916908373ffffffffffffffffffffffffffffffffffffffff16021790555060208201518160010160006101000a81548173ffffffffffffffffffffffffffffffffffffffff021916908373ffffffffffffffffffffffffffffffffffffffff16021790555060408201518160020155606082015181600301908051906020019061036c929190610677565b5060808201518160040160006101000a81548160ff0219169083151502179055509050508373ffffffffffffffffffffffffffffffffffffffff163373ffffffffffffffffffffffffffffffffffffffff167f492e103af6f9230a4390ccafe2c1781adba1b6ff6b665ab8aed3151cd2d0d1eb846001546040518080602001838152602001828103825284818151815260200191508051906020019080838360005b8381101561042957808201518184015260208101905061040e565b50505050905090810190601f1680156104565780820380516001836020036101000a031916815260200191505b50935050505060405180910390a360015490505b9392505050565b6000809054906101000a900473ffffffffffffffffffffffffffffffffffffffff1673ffffffffffffffffffffffffffffffffffffffff163373ffffffffffffffffffffffffffffffffffffffff161415610500576000809054906101000a900473ffffffffffffffffffffffffffffffffffffffff1673ffffffffffffffffffffffffffffffffffffffff16ff5b565b6000806000809054906101000a900473ffffffffffffffffffffffffffffffffffffffff1673ffffffffffffffffffffffffffffffffffffffff163373ffffffffffffffffffffffffffffffffffffffff16141561067157600260008481526020019081526020016000209050600073ffffffffffffffffffffffffffffffffffffffff168160000160009054906101000a900473ffffffffffffffffffffffffffffffffffffffff1673ffffffffffffffffffffffffffffffffffffffff16141580156105e55750600015158160040160009054906101000a900460ff161515145b1561066b5760018160040160006101000a81548160ff0219169083151502179055508060010160009054906101000a900473ffffffffffffffffffffffffffffffffffffffff1673ffffffffffffffffffffffffffffffffffffffff166108fc82600201549081150290604051600060405180830381858888f193505050509150610670565b600091505b5b50919050565b828054600181600116156101000203166002900490600052602060002090601f016020900481019282601f106106b857805160ff19168380011785556106e6565b828001600101855582156106e6579182015b828111156106e55782518255916020019190600101906106ca565b5b5090506106f391906106f7565b5090565b61071991905b808211156107155760008160009055506001016106fd565b5090565b905600a165627a7a72305820ff364d89dd60ef8490fdca08343ad92c505cbcd940be7a7cfadea5aa5807824f0029",
  "source": "pragma solidity ^0.4.0;\r\n\r\nimport \"./Mortal.sol\";\r\n\r\ncontract MyWallet is Mortal {\r\n  event receivedFunds(address indexed _from, uint256 _amount);\r\n  event proposalReceived(address indexed _from, address indexed _to, string _reason, uint _counter);\r\n  struct Proposal {\r\n    address _from;\r\n    address _to;\r\n    uint256 _value;\r\n    string _reason;\r\n    bool sent;\r\n  }\r\n\r\n  uint proposal_counter;\r\n  mapping (uint => Proposal) m_proposals;\r\n\r\n  function spendMoneyOn(address _to, uint256 _value, string _reason) public returns (uint256) {\r\n     if(owner == msg.sender) {\r\n       _to.transfer(_value);\r\n       return 0;\r\n     } else {\r\n       proposal_counter++;\r\n       m_proposals[proposal_counter] = Proposal(msg.sender, _to, _value, _reason, false);\r\n       proposalReceived(msg.sender, _to, _reason, proposal_counter);\r\n       return proposal_counter;\r\n     }\r\n  }\r\n\r\n function confirmProposal(uint proposal_id) only_owner public returns (bool) {\r\n    Proposal storage proposal = m_proposals[proposal_id];\r\n   if (proposal._from != address(0) && proposal.sent == false) {\r\n      proposal.sent = true;\r\n      return proposal._to.send(proposal._value);\r\n   }\r\n   return false;\r\n }\r\n  function() payable public {\r\n    if (msg.value > 0) {\r\n      receivedFunds(msg.sender, msg.value);\r\n    }\r\n  }\r\n\r\n\r\n}\r\n",
  "sourcePath": "C:\\Users\\Omar\\ether\\simple-frontend\\contracts\\MyWallet.sol",
  "compiler": {
    "name": "solc",
    "version": "0.4.19+commit.c4cbbb05.Emscripten.clang"
  },
  "schemaVersion": "1.0.1",
  "updatedAt": "2018-02-24T00:21:20.638Z"
}